:100000000C942A000C94AA150C94E1150C94141667
:100010000C94A4130C94D7130C945B100C948E10B6
:100020000C94C1100C94F4100C94830A0C94B60A2E
:100030000C9447000C9447000C9447000C94470024
:100040000C9447000C9447000C9447000C94470014
:100050000C94470011241FBECFE5D8E0DEBFCDBF12
:1000600011E0A0E6B0E0E2EAF5E702C005900D92EB
:10007000AE3AB107D9F711E0AEEAB1E001C01D9286
:10008000A03DB107E1F70E9429380C94CF3A0C94B7
:100090000000EF92FF920F931F937B018C0120E0F1
:1000A00030E040E05FE40E94550488238CF0C801F2
:1000B000B70120E030E040E05FE40E94C1010E940F
:1000C00043059B01AC01205030404040504806C0E1
:1000D000C801B7010E9443059B01AC01B901CA01E7
:1000E0001F910F91FF90EF900895A0E0B0E0EBE733
:1000F000F0E00C94983ADC012B01FA019C919230CB
:1001000008F439C1EB018881823008F433C194309E
:1001100069F4843009F02FC111969C91119789815F
:10012000981709F428C1A0EAB0E025C1843009F489
:1001300021C18230A9F4923009F01DC19A01AD01AC
:1001400088E0EA010990AE01E90109929E0181501F
:10015000C1F7E201898111969C918923818308C1AD
:10016000923009F407C112962D903C901397EB0141
:100170008A819B811496AD90BD90CD90DC901797AD
:10018000EC80FD800E811F819101281B390BB90184
:1001900037FF04C066277727621B730B6032710537
:1001A0000CF061C0121613066CF537014801062EDB
:1001B00004C096948794779467940A94D2F721E0C8
:1001C00030E040E050E004C0220F331F441F551FB1
:1001D0006A95D2F721503040404050402E213F21B7
:1001E00040235123211531054105510521F021E01E
:1001F00030E040E050E079018A01E628F72808293C
:1002000019293CC0232BD1F1260E371E350146019A
:10021000062E04C096948794779467940A94D2F734
:1002200021E030E040E050E004C0220F331F441FC3
:10023000551F6A95D2F721503040404050402A2146
:100240003B214C215D21211531054105510521F04E
:1002500021E030E040E050E059016A01A628B728CB
:10026000C828D9280BC0821593052CF01C01AA249C
:10027000BB24650103C0EE24FF24870111969C91E5
:10028000D20111968C91981709F445C0992339F041
:10029000A80197012A193B094C095D0906C0A6016E
:1002A00095012E193F09400B510B57FD08C01182D3
:1002B0003382228224833583468357831DC081E0A5
:1002C00081833382228288279927DC01821B930B4A
:1002D000A40BB50B84839583A683B7830DC0220F2F
:1002E000331F441F551F24833583468357838281E0
:1002F000938101979383828324813581468157813D
:10030000DA01C9010197A109B1098F5F9F4FAF4F72
:10031000BF4328F30BC0918333822282EA0CFB1C7B
:100320000C1D1D1DE482F5820683178383E0808304
:10033000248135814681578157FF1AC0C901AA27F8
:1003400097FDA095BA2F81709070A070B0705695EF
:10035000479537952795822B932BA42BB52B848318
:100360009583A683B7838281938101969383828349
:10037000DF0101C0D201CD01CDB7DEB7E2E10C94BF
:10038000B43AA0E2B0E0E7ECF1E00C94A43A69835F
:100390007A838B839C832D833E834F835887E9E048
:1003A000EE2EF12CEC0EFD1ECE010196B7010E943F
:1003B00034078E010F5E1F4FCE010596B8010E94D3
:1003C00034078A8991E089278A8BC701B801AE0179
:1003D000475E5F4F0E9475000E945F06A096E6E0B0
:1003E0000C94C03AA0E2B0E0E8EFF1E00C94A43A3B
:1003F00069837A838B839C832D833E834F835887C5
:10040000F9E0EF2EF12CEC0EFD1ECE010196B701A6
:100410000E9434078E010F5E1F4FCE010596B80172
:100420000E943407C701B801AE01475E5F4F0E94CA
:1004300075000E945F06A096E6E00C94C03AA0E228
:10044000B0E0E5E2F2E00C94983A69837A838B831A
:100450009C832D833E834F835887CE010196BE0136
:10046000675F7F4F0E943407CE010596BE016F5E25
:100470007F4F0E9434079985923088F089898230B5
:10048000C8F0943019F4823051F404C0843029F457
:10049000923081F480EA90E0C6C0923049F420E0C6
:1004A0009A858A89981321E02A87CE010996BBC0D4
:1004B000823049F420E09A858A89981321E02A8BBA
:1004C000CE014196B0C02D843E844F8458886D88FB
:1004D0007E888F88988CEE24FF248701AA24BB2471
:1004E000650140E050E060E070E0E0E0F0E0C10174
:1004F00081709070892BE9F0E60CF71C081D191D1E
:100500009A01AB012A0D3B1D4C1D5D1D80E090E062
:10051000A0E0B0E0E614F7040805190520F481E036
:1005200090E0A0E0B0E0BA01A901480F591F6A1F8E
:100530007B1FAA0CBB1CCC1CDD1C97FE08C081E0F5
:1005400090E0A0E0B0E0A82AB92ACA2ADB2A3196B6
:10055000E032F10549F0660C771C881C991C569412
:10056000479437942794C3CFFA85EA892B893C892D
:100570008B859C85280F391F2E5F3F4F17C0CA01FE
:1005800081709070892B61F016950795F794E79428
:1005900080E090E0A0E0B0E8E82AF92A0A2B1B2BC3
:1005A00076956795579547952F5F3F4F77FDE7CF36
:1005B0000CC0440F551F661F771F17FD4160EE0CDE
:1005C000FF1C001F111F21503040403090E05907A0
:1005D00090E0690790E4790760F32B8F3C8FDB0193
:1005E000CA018F779070A070B07080349105A1051A
:1005F000B10561F447FD0AC0E114F10401051105DC
:1006000029F0405C5F4F6F4F7F4F40781A8EFE1786
:1006100011F081E08A8F4D8F5E8F6F8F78A383E01A
:10062000898FCE0149960E945F06A096E2E10C9464
:10063000B43AA8E1B0E0EFE1F3E00C94A03A6983AA
:100640007A838B839C832D833E834F835887B9E0C5
:10065000EB2EF12CEC0EFD1ECE010196B7010E948F
:1006600034078E010F5E1F4FCE010596B8010E9420
:1006700034072985223008F47EC03989323010F4DD
:10068000B8017CC08A859A8989278A87243011F02D
:10069000223031F4231709F06EC060EA70E06EC0BA
:1006A000343039F41D861E861F86188A1C861B86E8
:1006B00004C0323021F484E08987B7015FC02B8504
:1006C0003C858B899C89281B390B3C872B87ED84C3
:1006D000FE840F851889AD88BE88CF88D88CEA142F
:1006E000FB040C051D0540F4EE0CFF1C001F111F40
:1006F000215030403C872B8720E030E040E050E044
:1007000080E090E0A0E0B0E460E070E0EA14FB0478
:100710000C051D0540F0282B392B4A2B5B2BEA18C2
:10072000FB080C091D09B695A79597958795EE0CC2
:10073000FF1C001F111F6F5F7F4F6F31710531F775
:10074000DA01C9018F779070A070B0708034910584
:10075000A105B10561F427FD0AC0E114F10401050A
:10076000110529F0205C3F4F4F4F5F4F20782D87B8
:100770003E874F87588BBE01675F7F4FCB010E943A
:100780005F066896EAE00C94BC3AA8E1B0E0EBECB6
:10079000F3E00C94A43A69837A838B839C832D8342
:1007A0003E834F83588789E0E82EF12CEC0EFD1E26
:1007B000CE010196B7010E9434078E010F5E1F4FD4
:1007C000CE010596B8010E9434078985823040F039
:1007D0008989823028F0C701B8010E94AC0701C0A6
:1007E00081E06896E6E00C94C03AA8E1B0E0EBEF57
:1007F000F3E00C94A43A69837A838B839C832D83E2
:100800003E834F83588789E0E82EF12CEC0EFD1EC5
:10081000CE010196B7010E9434078E010F5E1F4F73
:10082000CE010596B8010E9434078985823040F0D8
:100830008989823028F0C701B8010E94AC0701C045
:1008400081E06896E6E00C94C03AA8E1B0E0EBE203
:10085000F4E00C94A43A69837A838B839C832D8380
:100860003E834F83588789E0E82EF12CEC0EFD1E65
:10087000CE010196B7010E9434078E010F5E1F4F13
:10088000CE010596B8010E9434078985823040F078
:100890008989823028F0C701B8010E94AC0701C0E5
:1008A0008FEF6896E6E00C94C03AA8E1B0E0EBE583
:1008B000F4E00C94A43A69837A838B839C832D8320
:1008C0003E834F83588789E0E82EF12CEC0EFD1E05
:1008D000CE010196B7010E9434078E010F5E1F4FB3
:1008E000CE010596B8010E9434078985823040F018
:1008F0008989823028F0C701B8010E94AC0701C085
:100900008FEF6896E6E00C94C03AA8E1B0E0EBE81F
:10091000F4E00C94A43A69837A838B839C832D83BF
:100920003E834F83588789E0E82EF12CEC0EFD1EA4
:10093000CE010196B7010E9434078E010F5E1F4F52
:10094000CE010596B8010E9434078985823040F0B7
:100950008989823028F0C701B8010E94AC0701C024
:1009600081E06896E6E00C94C03AA8E1B0E0EBEBD9
:10097000F4E00C94A43A69837A838B839C832D835F
:100980003E834F83588789E0E82EF12CEC0EFD1E44
:10099000CE010196B7010E9434078E010F5E1F4FF2
:1009A000CE010596B8010E9434078985823040F057
:1009B0008989823028F0C701B8010E94AC0701C0C4
:1009C00081E06896E6E00C94C03AA8E0B0E0EBEE77
:1009D000F4E00C94A13A9B01AC0183E08983DA0135
:1009E000C9018827B7FD83959927AA27BB27B82E69
:1009F000211531054105510519F482E089833AC07A
:100A00008823A9F0203080E0380780E0480780E89C
:100A1000580729F460E070E080E09FEC30C0EE24DD
:100A2000FF248701E21AF30A040B150B02C07901B7
:100A30008A018EE1C82ED12CDC82CB82ED82FE822F
:100A40000F831887C801B7010E9410060197181676
:100A5000190684F4082E04C0EE0CFF1C001F111FA1
:100A60000A94D2F7ED82FE820F831887C81AD90A3A
:100A7000DC82CB82BA82CE0101960E945F06289664
:100A8000E9E00C94BD3AACE0B0E0E9E4F5E00C94A8
:100A9000A83A69837A838B839C83CE010196BE0139
:100AA0006B5F7F4F0E9434078D81823061F182300D
:100AB00050F1843021F48E81882351F12EC02F8192
:100AC000388537FD20C06E812F3131051CF066233B
:100AD000F9F023C08EE190E0821B930B29853A85C3
:100AE0004B855C8504C056954795379527958A9523
:100AF000D2F76623B1F050954095309521953F4F40
:100B00004F4F5F4F0EC020E030E040E050E009C0A2
:100B10002FEF3FEF4FEF5FE704C020E030E040E011
:100B200050E8B901CA012C96E2E00C94C43AA8E05E
:100B3000B0E0EDE9F5E00C94A03A7B018C01611581
:100B400071058105910519F482E0898360C083E015
:100B500089838EE1C82ED12CDC82CB82ED82FE828D
:100B60000F831887C801B7010E941006FC01319756
:100B7000F7FF3BC0222733272E1B3F0B570168018D
:100B8000022E04C0D694C794B794A7940A94D2F7BF
:100B900040E050E060E070E081E090E0A0E0B0E094
:100BA00004C0880F991FAA1FBB1F2A95D2F701976F
:100BB000A109B1098E219F21A023B1230097A1058E
:100BC000B10521F041E050E060E070E04A295B2986
:100BD0006C297D294D835E836F8378878EE190E059
:100BE0008E1B9F0B9C838B8312C0309781F00E2E3F
:100BF00004C0EE0CFF1C001F111F0A94D2F7ED82F7
:100C0000FE820F831887CE1ADF0ADC82CB821A821B
:100C1000CE0101960E945F062896EAE00C94BC3A49
:100C2000EF92FF920F931F937B018C0180E0E816F7
:100C300080E0F80681E0080780E0180788F48FEF6D
:100C4000E816F1040105110531F028F088E090E084
:100C5000A0E0B0E017C080E090E0A0E0B0E012C0FB
:100C600080E0E81680E0F80680E0080781E01807D9
:100C700028F088E190E0A0E0B0E004C080E190E0DE
:100C8000A0E0B0E020E230E040E050E0281B390B6B
:100C90004A0B5B0B04C016950795F794E7948A9569
:100CA000D2F7F701E855FF4F8081281B3109410930
:100CB0005109C9011F910F91FF90EF900895DF92A4
:100CC000EF92FF920F931F93FC01E480F580068161
:100CD0001781D1808081823048F480E090E0A0E1EB
:100CE000B0E0E82AF92A0A2B1B2BA5C0843009F4AE
:100CF0009FC0823021F4EE24FF24870105C0E11457
:100D0000F1040105110519F4E0E0F0E096C06281FC
:100D100073819FEF623879070CF05BC022E83FEFE8
:100D2000261B370B2A3131052CF020E030E040E063
:100D300050E02AC0B801A701022E04C0769567953D
:100D4000579547950A94D2F781E090E0A0E0B0E093
:100D500004C0880F991FAA1FBB1F2A95D2F70197BD
:100D6000A109B1098E219F21A023B1230097A105DC
:100D7000B10521F081E090E0A0E0B0E09A01AB0184
:100D8000282B392B4A2B5B2BDA01C9018F77907006
:100D9000A070B07080349105A105B10539F427FF2A
:100DA00009C0205C3F4F4F4F5F4F04C0215C3F4F55
:100DB0004F4F5F4FE0E0F0E02030A0E03A07A0E0C6
:100DC0004A07A0E45A0710F0E1E0F0E079018A0157
:100DD00027C06038710564F5FB01E158FF4FD80169
:100DE000C7018F779070A070B07080349105A10515
:100DF000B10539F4E7FE0DC080E490E0A0E0B0E07A
:100E000004C08FE390E0A0E0B0E0E80EF91E0A1FF6
:100E10001B1F17FF05C016950795F794E7943196A9
:100E200087E016950795F794E7948A95D1F705C062
:100E3000EE24FF248701EFEFF0E06E2F6795662721
:100E40006795902F9F77D794DD24D7948E2F869522
:100E5000492F462B582F5D29B701CA011F910F91C9
:100E6000FF90EF90DF900895FC01DB0140815181FC
:100E70002281622F6F7770E0221F2227221F938129
:100E8000892F880F822B282F30E0991F9927991FCF
:100E900011969C93119721153105A9F5411551051E
:100EA0006105710511F482E037C082E89FEF139667
:100EB0009C938E9312979A01AB0167E0220F331F28
:100EC000441F551F6A95D1F783E08C930DC0220F04
:100ED000331F441F551F12968D919C9113970197B4
:100EE00013969C938E931297203080E0380780E011
:100EF000480780E4580758F314962D933D934D937B
:100F00005C93179708952F3F310579F441155105EA
:100F10006105710519F484E08C93089564FF03C0A2
:100F200081E08C9312C01C9210C02F573040139652
:100F30003C932E93129783E08C9387E0440F551FC8
:100F4000661F771F8A95D1F7706414964D935D9351
:100F50006D937C93179708951F93DC01FB019C917F
:100F6000923008F447C08081823008F443C0943046
:100F700051F411961C91843099F58181682F70E0AD
:100F8000611B71093FC0843021F0923031F482300E
:100F9000B9F18181882389F12DC011961C91119797
:100FA0008230F1F081811817D9F412962D913C917D
:100FB0001397828193818217930794F0281739073A
:100FC000BCF014968D919D910D90BC91A02D248123
:100FD000358146815781281739074A075B0718F47E
:100FE000112341F00AC082179307A407B50740F404
:100FF000112319F061E070E005C06FEF7FEF02C0D0
:1010000060E070E0CB011F910895DF93CF9300D093
:1010100000D000D0CDB7DEB789836A838981282FBD
:1010200030E03E832D838D819E818130910521F1B9
:101030002D813E81223031052CF48D819E810097D7
:1010400061F046C02D813E812230310521F18D8134
:101050009E818330910571F13BC0A3E5B0E0E3E5EB
:10106000F0E080818F7B8C93A3E5B0E0E3E5F0E0D6
:101070008081877F8C932CC0A3E5B0E0E3E5F0E0AE
:10108000808180648C93A3E5B0E0E3E5F0E08081AB
:10109000877F8C931DC0A3E5B0E0E3E5F0E080819D
:1010A0008F7B8C93A3E5B0E0E3E5F0E0808188607E
:1010B0008C930EC0A3E5B0E0E3E5F0E080818064AE
:1010C0008C93A3E5B0E0E3E5F0E0808188608C9349
:1010D0008A81282F30E03C832B838B819C81833055
:1010E000910509F470C02B813C812430310584F4D2
:1010F0008B819C8181309105D1F12B813C81223003
:1011000031050CF04AC08B819C810097D1F0C8C09A
:101110002B813C812530310509F481C08B819C8174
:10112000853091050CF465C02B813C81263031055A
:1011300009F48BC08B819C818730910509F49BC099
:10114000AFC0A3E5B0E0E3E5F0E080818E7F8C9353
:10115000A3E5B0E0E3E5F0E080818D7F8C93A3E52B
:10116000B0E0E3E5F0E080818B7F8C9399C0A3E54C
:10117000B0E0E3E5F0E0808181608C93A3E5B0E02E
:10118000E3E5F0E080818D7F8C93A3E5B0E0E3E5BB
:10119000F0E080818B7F8C9383C0A3E5B0E0E3E532
:1011A000F0E080818E7F8C93A3E5B0E0E3E5F0E092
:1011B000808182608C93A3E5B0E0E3E5F0E080817C
:1011C0008B7F8C936DC0A3E5B0E0E3E5F0E0808118
:1011D00081608C93A3E5B0E0E3E5F0E0808182607C
:1011E0008C93A3E5B0E0E3E5F0E080818B7F8C9306
:1011F00057C0A3E5B0E0E3E5F0E080818E7F8C93FB
:10120000A3E5B0E0E3E5F0E080818D7F8C93A3E57A
:10121000B0E0E3E5F0E0808184608C9341C0A3E519
:10122000B0E0E3E5F0E0808181608C93A3E5B0E07D
:10123000E3E5F0E080818D7F8C93A3E5B0E0E3E50A
:10124000F0E0808184608C932BC0A3E5B0E0E3E5FF
:10125000F0E080818E7F8C93A3E5B0E0E3E5F0E0E1
:10126000808182608C93A3E5B0E0E3E5F0E08081CB
:1012700084608C9315C0A3E5B0E0E3E5F0E08081E5
:1012800081608C93A3E5B0E0E3E5F0E080818260CB
:101290008C93A3E5B0E0E3E5F0E0808184608C937B
:1012A000E2E5F0E0108226960FB6F894DEBF0FBE9E
:1012B000CDBFCF91DF910895DF93CF930F92CDB73C
:1012C000DEB78983E2E5F0E0898180830F90CF91DA
:1012D000DF910895DF93CF930F92CDB7DEB7898367
:1012E000ECE5F0E0898180830F90CF91DF91089544
:1012F000DF93CF9300D00F92CDB7DEB7898381E023
:1013000063E041E00E9471178981282F30E03B8320
:101310002A838A819B818130910521F12A813B8139
:10132000223031052CF48A819B81009761F046C000
:101330002A813B812230310521F18A819B818330D2
:10134000910571F13BC0A3E5B0E0E3E5F0E08081F9
:101350008F7E8C93A3E5B0E0E3E5F0E080818F7DA4
:101360008C932CC0A3E5B0E0E3E5F0E080818061E0
:101370008C93A3E5B0E0E3E5F0E080818F7D8C9372
:101380001DC0A3E5B0E0E3E5F0E080818F7E8C93A3
:10139000A3E5B0E0E3E5F0E0808180628C930EC0CD
:1013A000A3E5B0E0E3E5F0E0808180618C93A3E504
:1013B000B0E0E3E5F0E0808180628C930F900F90C5
:1013C0000F90CF91DF910895DF93CF93CDB7DEB724
:1013D000A9E5B0E0E9E5F0E0808181608C93CF91F0
:1013E000DF910895DF93CF93CDB7DEB7A9E5B0E0E5
:1013F000E9E5F0E080818E7F8C93CF91DF910895B5
:10140000DF93CF93CDB7DEB7A9E5B0E0E9E5F0E033
:10141000808182608C93CF91DF910895DF93CF9389
:10142000CDB7DEB7A9E5B0E0E9E5F0E080818D7FDA
:101430008C93CF91DF910895DF93CF9300D0CDB7F8
:10144000DEB79A83898389819A819093AF018093D3
:10145000AE010F900F90CF91DF910895DF93CF935E
:1014600000D0CDB7DEB79A83898389819A81909322
:10147000B1018093B0010F900F90CF91DF9108954B
:10148000DF93CF93CDB7DEB780E00E940A14E8E582
:10149000F0E08081882F90E0817090700097B9F320
:1014A000CF91DF910895DF93CF93CDB7DEB781E081
:1014B0000E940A14E8E5F0E080818695882F90E08C
:1014C000817090700097B1F3CF91DF910895DF9311
:1014D000CF93CDB7DEB7A3E5B0E0E3E5F0E08081E0
:1014E0008E7F8C93A3E5B0E0E3E5F0E080818D7F13
:1014F0008C93A3E5B0E0E3E5F0E080818B7F8C93F3
:10150000CF91DF9108951F920F920FB60F92112481
:101510002F933F934F935F936F937F938F939F93FB
:10152000AF93BF93EF93FF93DF93CF93CDB7DEB726
:101530008091B0019091B101009729F0E091B00144
:10154000F091B1010995CF91DF91FF91EF91BF919A
:10155000AF919F918F917F916F915F914F913F914B
:101560002F910F900FBE0F901F9018951F920F9202
:101570000FB60F9211242F933F934F935F936F9366
:101580007F938F939F93AF93BF93EF93FF93DF93DB
:10159000CF93CDB7DEB78091AE019091AF010097A8
:1015A00029F0E091AE01F091AF010995CF91DF9163
:1015B000FF91EF91BF91AF919F918F917F916F912B
:1015C0005F914F913F912F910F900FBE0F901F9001
:1015D0001895DF93CF9300D000D000D0CDB7DEB701
:1015E00089836A838981282F30E03E832D838D8112
:1015F0009E818730910509F424C12D813E812830D8
:1016000031054CF58D819E818330910509F4A5C08B
:101610002D813E81243031058CF48D819E81813075
:10162000910509F460C02D813E81223031050CF016
:1016300077C08D819E810097C9F1EAC12D813E81DD
:101640002530310509F4C3C08D819E818630910516
:101650000CF0DAC09FC02D813E812B30310509F49A
:1016600064C18D819E818C3091056CF42D813E8109
:101670002930310509F41FC18D819E818A30910581
:101680000CF036C1FBC02D813E812D30310509F4AF
:1016900086C18D819E818D3091050CF463C12D81B1
:1016A0003E812E30310509F497C1B2C1AFE4B0E0FC
:1016B000EFE4F0E080818E7F8C93AFE4B0E0EFE464
:1016C000F0E080818D7F8C93AEE4B0E0EEE4F0E05A
:1016D0008081877F8C93AEE4B0E0EEE4F0E080811F
:1016E0008F7E8C9395C1AFE4B0E0EFE4F0E08081B1
:1016F00081608C93AFE4B0E0EFE4F0E080818D7F17
:101700008C93AEE4B0E0EEE4F0E08081877F8C93D0
:10171000AEE4B0E0EEE4F0E080818F7E8C9378C19F
:10172000AFE4B0E0EFE4F0E080818E7F8C93AFE433
:10173000B0E0EFE4F0E0808182608C93AEE4B0E052
:10174000EEE4F0E08081877F8C93AEE4B0E0EEE4DD
:10175000F0E080818F7E8C935BC1AFE4B0E0EFE47A
:10176000F0E0808181608C93AFE4B0E0EFE4F0E0E2
:10177000808182608C93AEE4B0E0EEE4F0E08081A2
:10178000877F8C93AEE4B0E0EEE4F0E080818F7E62
:101790008C933EC1AFE4B0E0EFE4F0E080818E7F57
:1017A0008C93AFE4B0E0EFE4F0E080818D7F8C9328
:1017B000AEE4B0E0EEE4F0E0808188608C93AEE4CB
:1017C000B0E0EEE4F0E080818F7E8C9321C1AFE445
:1017D000B0E0EFE4F0E0808181608C93AFE4B0E0B2
:1017E000EFE4F0E080818D7F8C93AEE4B0E0EEE436
:1017F000F0E0808188608C93AEE4B0E0EEE4F0E04D
:1018000080818F7E8C9304C1AFE4B0E0EFE4F0E020
:1018100080818E7F8C93AFE4B0E0EFE4F0E08081D4
:1018200082608C93AEE4B0E0EEE4F0E0808188600A
:101830008C93AEE4B0E0EEE4F0E080818F7E8C9398
:10184000E7C0AFE4B0E0EFE4F0E0808181608C932A
:10185000AFE4B0E0EFE4F0E0808182608C93AEE42E
:10186000B0E0EEE4F0E0808188608C93AEE4B0E01C
:10187000EEE4F0E080818F7E8C93CAC0AFE4B0E0EC
:10188000EFE4F0E080818E7F8C93AFE4B0E0EFE492
:10189000F0E080818D7F8C93AEE4B0E0EEE4F0E088
:1018A0008081877F8C93AEE4B0E0EEE4F0E080814D
:1018B00080618C93ADC0AFE4B0E0EFE4F0E08081F4
:1018C00081608C93AFE4B0E0EFE4F0E080818D7F45
:1018D0008C93AEE4B0E0EEE4F0E08081877F8C93FF
:1018E000AEE4B0E0EEE4F0E0808180618C9390C0E3
:1018F000AFE4B0E0EFE4F0E080818E7F8C93AFE462
:10190000B0E0EFE4F0E0808182608C93AEE4B0E080
:10191000EEE4F0E08081877F8C93AEE4B0E0EEE40B
:10192000F0E0808180618C9373C0AFE4B0E0EFE4BD
:10193000F0E0808181608C93AFE4B0E0EFE4F0E010
:10194000808182608C93AEE4B0E0EEE4F0E08081D0
:10195000877F8C93AEE4B0E0EEE4F0E080818061BC
:101960008C9356C0AFE4B0E0EFE4F0E080818E7F6E
:101970008C93AFE4B0E0EFE4F0E080818D7F8C9356
:10198000AEE4B0E0EEE4F0E0808188608C93AEE4F9
:10199000B0E0EEE4F0E0808180618C9339C0AFE488
:1019A000B0E0EFE4F0E080818E7F8C93AFE4B0E0B4
:1019B000EFE4F0E0808182608C93AEE4B0E0EEE48E
:1019C000F0E0808188608C93AEE4B0E0EEE4F0E07B
:1019D000808180618C931CC0AFE4B0E0EFE4F0E064
:1019E000808181608C93AFE4B0E0EFE4F0E080812F
:1019F00082608C93AEE4B0E0EEE4F0E08081886039
:101A00008C93AEE4B0E0EEE4F0E0808180618C93F2
:101A10008A81282F30E03C832B838B819C8183300B
:101A2000910509F470C02B813C812430310584F488
:101A30008B819C8181309105D1F12B813C812230B9
:101A400031050CF04AC08B819C810097D1F0C8C051
:101A50002B813C812530310509F481C08B819C812B
:101A6000853091050CF465C02B813C812630310511
:101A700009F48BC08B819C818730910509F49BC050
:101A8000AFC0AEE4B0E0EEE4F0E080818E7F8C93F6
:101A9000AEE4B0E0EEE4F0E080818D7F8C93AEE4C4
:101AA000B0E0EEE4F0E080818B7F8C9399C0AEE4EF
:101AB000B0E0EEE4F0E0808181608C93AEE4B0E0D1
:101AC000EEE4F0E080818D7F8C93AEE4B0E0EEE454
:101AD000F0E080818B7F8C9383C0AEE4B0E0EEE4D5
:101AE000F0E080818E7F8C93AEE4B0E0EEE4F0E035
:101AF000808182608C93AEE4B0E0EEE4F0E080811F
:101B00008B7F8C936DC0AEE4B0E0EEE4F0E08081BA
:101B100081608C93AEE4B0E0EEE4F0E0808182601E
:101B20008C93AEE4B0E0EEE4F0E080818B7F8C93A8
:101B300057C0AEE4B0E0EEE4F0E080818E7F8C939D
:101B4000AEE4B0E0EEE4F0E080818D7F8C93AEE413
:101B5000B0E0EEE4F0E0808184608C9341C0AEE4BC
:101B6000B0E0EEE4F0E0808181608C93AEE4B0E020
:101B7000EEE4F0E080818D7F8C93AEE4B0E0EEE4A3
:101B8000F0E0808184608C932BC0AEE4B0E0EEE4A2
:101B9000F0E080818E7F8C93AEE4B0E0EEE4F0E084
:101BA000808182608C93AEE4B0E0EEE4F0E080816E
:101BB00084608C9315C0AEE4B0E0EEE4F0E0808188
:101BC00081608C93AEE4B0E0EEE4F0E0808182606E
:101BD0008C93AEE4B0E0EEE4F0E0808184608C931E
:101BE00080E090E00E94FD0D26960FB6F894DEBFCF
:101BF0000FBECDBFCF91DF910895DF93CF9300D07B
:101C0000CDB7DEB79A838983ECE4F0E089818083E5
:101C1000EDE4F0E089819A81892F992780830F90E4
:101C20000F90CF91DF910895DF93CF9300D0CDB780
:101C3000DEB79A838983EAE4F0E089818083EBE46C
:101C4000F0E089819A81892F992780830F900F90E6
:101C5000CF91DF910895DF93CF9300D0CDB7DEB75A
:101C60009A838983E8E4F0E089818083E9E4F0E005
:101C700089819A81892F992780830F900F90CF9126
:101C8000DF910895DF93CF9300D0CDB7DEB79A836D
:101C90008983E6E4F0E089818083E7E4F0E08981EC
:101CA0009A81892F992780830F900F90CF91DF9190
:101CB0000895DF93CF9300D00F92CDB7DEB789831D
:101CC00083E065E041E00E9471178981282F30E0B0
:101CD0003B832A838A819B818130910521F12A816E
:101CE0003B81223031052CF48A819B81009761F081
:101CF00046C02A813B812230310521F18A819B81B6
:101D00008330910571F13BC0AFE4B0E0EFE4F0E067
:101D100080818F7B8C93AFE4B0E0EFE4F0E08081D2
:101D20008F778C932CC0AFE4B0E0EFE4F0E08081DB
:101D300080648C93AFE4B0E0EFE4F0E080818F77D3
:101D40008C931DC0AFE4B0E0EFE4F0E080818F7BC6
:101D50008C93AFE4B0E0EFE4F0E0808180688C9396
:101D60000EC0AFE4B0E0EFE4F0E0808180648C93DB
:101D7000AFE4B0E0EFE4F0E0808180688C930F90F6
:101D80000F900F90CF91DF910895DF93CF9300D004
:101D90000F92CDB7DEB7898383E064E041E00E9413
:101DA00071178981282F30E03B832A838A819B81A8
:101DB0008130910521F12A813B81223031052CF4BB
:101DC0008A819B81009761F046C02A813B81223045
:101DD000310521F18A819B818330910571F13BC0EE
:101DE000AFE4B0E0EFE4F0E080818F7E8C93AFE46D
:101DF000B0E0EFE4F0E080818F7D8C932CC0AFE405
:101E0000B0E0EFE4F0E0808180618C93AFE4B0E07B
:101E1000EFE4F0E080818F7D8C931DC0AFE4B0E0F3
:101E2000EFE4F0E080818F7E8C93AFE4B0E0EFE4EC
:101E3000F0E0808180628C930EC0AFE4B0E0EFE40C
:101E4000F0E0808180618C93AFE4B0E0EFE4F0E0FB
:101E5000808180628C930F900F900F90CF91DF91D3
:101E60000895DF93CF93CDB7DEB7A9E5B0E0E9E5FC
:101E7000F0E0808184608C93CF91DF910895DF93AF
:101E8000CF93CDB7DEB7A9E5B0E0E9E5F0E080811A
:101E90008B7F8C93CF91DF910895DF93CF93CDB754
:101EA000DEB7A9E5B0E0E9E5F0E0808180618C93E0
:101EB000CF91DF910895DF93CF93CDB7DEB7A9E53A
:101EC000B0E0E9E5F0E080818F7E8C93CF91DF91E7
:101ED0000895DF93CF93CDB7DEB7A9E5B0E0E9E58C
:101EE000F0E0808188608C93CF91DF910895DF933B
:101EF000CF93CDB7DEB7A9E5B0E0E9E5F0E08081AA
:101F0000877F8C93CF91DF910895DF93CF93CDB7E7
:101F1000DEB7A9E5B0E0E9E5F0E0808180628C936E
:101F2000CF91DF910895DF93CF93CDB7DEB7A9E5C9
:101F3000B0E0E9E5F0E080818F7D8C93CF91DF9177
:101F40000895DF93CF9300D0CDB7DEB79A8389830E
:101F500089819A819093B3018093B2010F900F9081
:101F6000CF91DF910895DF93CF9300D0CDB7DEB747
:101F70009A83898389819A819093B5018093B40172
:101F80000F900F90CF91DF910895DF93CF9300D002
:101F9000CDB7DEB79A83898389819A819093B701FF
:101FA0008093B6010F900F90CF91DF910895DF934A
:101FB000CF9300D0CDB7DEB79A83898389819A8188
:101FC0009093B9018093B8010F900F90CF91DF915A
:101FD0000895DF93CF93CDB7DEB782E00E940A1455
:101FE000E8E5F0E0808186958695882F90E0817005
:101FF00090700097A9F3CF91DF910895DF93CF936D
:10200000CDB7DEB784E00E940A14E8E5F0E08081F5
:1020100082958F70882F90E0817090700097A9F35F
:10202000CF91DF910895DF93CF93CDB7DEB783E0F3
:102030000E940A14E8E5F0E08081869586958695F1
:10204000882F90E0817090700097A1F3CF91DF917D
:102050000895DF93CF93CDB7DEB785E00E940A14D1
:10206000E8E5F0E08081829586958770882F90E082
:10207000817090700097A1F3CF91DF910895DF9365
:10208000CF93CDB7DEB7AEE4B0E0EEE4F0E0808110
:102090008E7F8C93AEE4B0E0EEE4F0E080818D7F43
:1020A0008C93AEE4B0E0EEE4F0E080818B7F8C9323
:1020B000CF91DF9108951F920F920FB60F921124C6
:1020C0002F933F934F935F936F937F938F939F9340
:1020D000AF93BF93EF93FF93DF93CF93CDB7DEB76B
:1020E0008091B8019091B901009729F0E091B80171
:1020F000F091B9010995CF91DF91FF91EF91BF91D7
:10210000AF919F918F917F916F915F914F913F918F
:102110002F910F900FBE0F901F9018951F920F9246
:102120000FB60F9211242F933F934F935F936F93AA
:102130007F938F939F93AF93BF93EF93FF93DF931F
:10214000CF93CDB7DEB78091B4019091B5010097E0
:1021500029F0E091B401F091B5010995CF91DF919B
:10216000FF91EF91BF91AF919F918F917F916F916F
:102170005F914F913F912F910F900FBE0F901F9045
:1021800018951F920F920FB60F9211242F933F9321
:102190004F935F936F937F938F939F93AF93BF936F
:1021A000EF93FF93DF93CF93CDB7DEB78091B60166
:1021B0009091B701009729F0E091B601F091B70135
:1021C0000995CF91DF91FF91EF91BF91AF919F91D1
:1021D0008F917F916F915F914F913F912F910F90D0
:1021E0000FBE0F901F9018951F920F920FB60F926F
:1021F00011242F933F934F935F936F937F938F930C
:102200009F93AF93BF93EF93FF93DF93CF93CDB79C
:10221000DEB78091B2019091B301009729F0E0916F
:10222000B201F091B3010995CF91DF91FF91EF9148
:10223000BF91AF919F918F917F916F915F914F91DE
:102240003F912F910F900FBE0F901F901895DF9325
:10225000CF9300D000D000D0CDB7DEB789836A839A
:102260008981282F30E03E832D838D819E818130AE
:10227000910521F12D813E81223031052CF48D8193
:102280009E81009761F046C02D813E81223031054C
:1022900021F18D819E818330910571F13BC0A5E4D0
:1022A000B0E0E5E4F0E080818F7B8C93A5E4B0E0C2
:1022B000E5E4F0E08081877F8C932CC0A5E4B0E05A
:1022C000E5E4F0E0808180648C93A5E4B0E0E5E48F
:1022D000F0E08081877F8C931DC0A5E4B0E0E5E449
:1022E000F0E080818F7B8C93A5E4B0E0E5E4F0E042
:1022F000808188608C930EC0A5E4B0E0E5E4F0E056
:10230000808180648C93A5E4B0E0E5E4F0E0808116
:1023100088608C938A81282F30E03C832B838B81CB
:102320009C818330910509F470C02B813C8124305D
:10233000310584F48B819C8181309105D1F12B8111
:102340003C81223031050CF04AC08B819C81009782
:10235000D1F0C8C02B813C812530310509F481C002
:102360008B819C81853091050CF465C02B813C816B
:102370002630310509F48BC08B819C818730910513
:1023800009F49BC0AFC0A5E4B0E0E5E4F0E08081D3
:102390008E7F8C93A5E4B0E0E5E4F0E080818D7F52
:1023A0008C93A5E4B0E0E5E4F0E080818B7F8C9332
:1023B00099C0A5E4B0E0E5E4F0E0808181608C9311
:1023C000A5E4B0E0E5E4F0E080818D7F8C93A5E4A6
:1023D000B0E0E5E4F0E080818B7F8C9383C0A5E4DE
:1023E000B0E0E5E4F0E080818E7F8C93A5E4B0E07E
:1023F000E5E4F0E0808182608C93A5E4B0E0E5E460
:10240000F0E080818B7F8C936DC0A5E4B0E0E5E4C3
:10241000F0E0808181608C93A5E4B0E0E5E4F0E039
:10242000808182608C93A5E4B0E0E5E4F0E08081F7
:102430008B7F8C9357C0A5E4B0E0E5E4F0E08081A9
:102440008E7F8C93A5E4B0E0E5E4F0E080818D7FA1
:102450008C93A5E4B0E0E5E4F0E0808184608C93A7
:1024600041C0A5E4B0E0E5E4F0E0808181608C93B8
:10247000A5E4B0E0E5E4F0E080818D7F8C93A5E4F5
:10248000B0E0E5E4F0E0808184608C932BC0A5E4AB
:10249000B0E0E5E4F0E080818E7F8C93A5E4B0E0CD
:1024A000E5E4F0E0808182608C93A5E4B0E0E5E4AF
:1024B000F0E0808184608C9315C0A5E4B0E0E5E491
:1024C000F0E0808181608C93A5E4B0E0E5E4F0E089
:1024D000808182608C93A5E4B0E0E5E4F0E0808147
:1024E00084608C93E4E4F0E0108226960FB6F894B2
:1024F000DEBF0FBECDBFCF91DF910895DF93CF93A5
:102500000F92CDB7DEB78983E4E4F0E08981808360
:102510000F90CF91DF910895DF93CF930F92CDB7B6
:10252000DEB78983E3E4F0E0898180830F90CF9167
:10253000DF910895DF93CF9300D00F92CDB7DEB730
:10254000898383E067E041E00E9471178981282F29
:1025500030E03B832A838A819B818130910521F180
:102560002A813B81223031052CF48A819B8100979E
:1025700061F046C02A813B812230310521F18A81F8
:102580009B818330910571F13BC0A5E4B0E0E5E4A7
:10259000F0E080818F7E8C93A5E4B0E0E5E4F0E08C
:1025A00080818F7D8C932CC0A5E4B0E0E5E4F0E061
:1025B000808180618C93A5E4B0E0E5E4F0E0808167
:1025C0008F7D8C931DC0A5E4B0E0E5E4F0E0808150
:1025D0008F7E8C93A5E4B0E0E5E4F0E0808180623A
:1025E0008C930EC0A5E4B0E0E5E4F0E0808180616A
:1025F0008C93A5E4B0E0E5E4F0E0808180628C9308
:102600000F900F900F90CF91DF910895DF93CF93AC
:10261000CDB7DEB7A9E5B0E0E9E5F0E08081806400
:102620008C93CF91DF910895DF93CF93CDB7DEB731
:10263000A9E5B0E0E9E5F0E080818F7B8C93CF9154
:10264000DF910895DF93CF93CDB7DEB7A9E5B0E072
:10265000E9E5F0E0808180688C93CF91DF91089567
:10266000DF93CF93CDB7DEB7A9E5B0E0E9E5F0E0C1
:1026700080818F778C93CF91DF910895DF93CF93F3
:1026800000D0CDB7DEB79A83898389819A819093F0
:10269000BB018093BA010F900F90CF91DF91089505
:1026A000DF93CF9300D0CDB7DEB79A83898389813A
:1026B0009A819093BD018093BC010F900F90CF91B0
:1026C000DF910895DF93CF93CDB7DEB786E00E9408
:1026D0000A14E8E5F0E080818295869586958370FE
:1026E000882F90E081709070009799F3CF91DF91DF
:1026F0000895DF93CF93CDB7DEB787E00E940A1429
:10270000E8E5F0E080818823DCF7CF91DF91089540
:10271000DF93CF93CDB7DEB7A5E4B0E0E5E4F0E01A
:1027200080818E7F8C93A5E4B0E0E5E4F0E08081C9
:102730008D7F8C93A5E4B0E0E5E4F0E080818B7FB1
:102740008C93CF91DF9108951F920F920FB60F9245
:1027500011242F933F934F935F936F937F938F93A6
:102760009F93AF93BF93EF93FF93DF93CF93CDB737
:10277000DEB78091BC019091BD01009729F0E091F6
:10278000BC01F091BD010995CF91DF91FF91EF91CF
:10279000BF91AF919F918F917F916F915F914F9179
:1027A0003F912F910F900FBE0F901F9018951F9281
:1027B0000F920FB60F9211242F933F934F935F9375
:1027C0006F937F938F939F93AF93BF93EF93FF93F9
:1027D000DF93CF93CDB7DEB78091BA019091BB0163
:1027E000009729F0E091BA01F091BB010995CF91D2
:1027F000DF91FF91EF91BF91AF919F918F917F9169
:102800006F915F914F913F912F910F900FBE0F905D
:102810001F901895DF93CF930F92CDB7DEB78983C2
:10282000A8E5B0E0E8E5F0E08081482F8981282F15
:1028300030E081E090E0022E02C0880F991F0A94D8
:10284000E2F7842B8C930F90CF91DF910895DF9363
:10285000CF93CDB7DEB7ABE5B0E0EBE5F0E080813C
:1028600080648C93CF91DF910895DF93CF93CDB7A0
:10287000DEB7ABE5B0E0EBE5F0E080818F7B8C93D9
:10288000CF91DF910895DF93CF93CDB7DEB7ABE55E
:10289000B0E0EBE5F0E0808180688C93CF91DF9130
:1028A0000895DF93CF93CDB7DEB7ABE5B0E0EBE5AE
:1028B000F0E080818F778C93CF91DF910895DF9343
:1028C000CF93CDB7DEB7ABE5B0E0EBE5F0E08081CC
:1028D00080628C93CF91DF910895DF93CF93CDB732
:1028E000DEB7ABE5B0E0EBE5F0E080818F7D8C9367
:1028F000CF91DF910895DF93CF9300D00F92CDB7A2
:10290000DEB789838981282F30E03B832A838A813F
:102910009B818130910521F12A813B812230310553
:102920002CF48A819B81009761F046C02A813B810B
:102930002230310521F18A819B818330910571F12B
:102940003BC0A5E5B0E0E5E5F0E080818E7F8C93AB
:10295000A5E5B0E0E5E5F0E080818D7F8C932CC0AB
:10296000A5E5B0E0E5E5F0E0808181608C93A5E528
:10297000B0E0E5E5F0E080818D7F8C931DC0A5E59A
:10298000B0E0E5E5F0E080818E7F8C93A5E5B0E0D6
:10299000E5E5F0E0808182608C930EC0A5E5B0E0B3
:1029A000E5E5F0E0808181608C93A5E5B0E0E5E5A8
:1029B000F0E0808182608C930F900F900F90CF9108
:1029C000DF910895DF93CF9300D00F92CDB7DEB79C
:1029D00089838981282F30E03B832A838A819B81E8
:1029E0008130910521F12A813B81223031052CF47F
:1029F0008A819B81009761F046C02A813B81223009
:102A0000310521F18A819B818330910571F13BC0B1
:102A1000A5E5B0E0E5E5F0E080818B7F8C93A5E54E
:102A2000B0E0E5E5F0E08081877F8C932CC0A5E5E0
:102A3000B0E0E5E5F0E0808184608C93A5E5B0E04E
:102A4000E5E5F0E08081877F8C931DC0A5E5B0E0CF
:102A5000E5E5F0E080818B7F8C93A5E5B0E0E5E5CE
:102A6000F0E0808188608C930EC0A5E5B0E0E5E5DC
:102A7000F0E0808184608C93A5E5B0E0E5E5F0E0CE
:102A8000808188608C930F900F900F90CF91DF9191
:102A90000895DF93CF9300D00F92CDB7DEB789832F
:102AA0008981282F30E03B832A838A819B8100978C
:102AB00031F02A813B812130310549F00FC0A4E576
:102AC000B0E0E4E5F0E080818F7B8C9307C0A4E563
:102AD000B0E0E4E5F0E0808180648C930F900F908B
:102AE0000F90CF91DF910895DF93CF9300D0CDB7B2
:102AF000DEB79A83898389819A819093BF018093FD
:102B0000BE010F900F90CF91DF910895DF93CF9387
:102B100000D0CDB7DEB79A83898389819A8190935B
:102B2000C1018093C0010F900F90CF91DF91089564
:102B3000DF93CF9300D0CDB7DEB79A8389838981A5
:102B40009A819093C3018093C2010F900F90CF910F
:102B5000DF9108951F920F920FB60F9211242F93B9
:102B60003F934F935F936F937F938F939F93AF9315
:102B7000BF93EF93FF93DF93CF93CDB7DEB70E9460
:102B800055168091BE019091BF01009729F0E09108
:102B9000BE01F091BF0109950E944716CF91DF91C8
:102BA000FF91EF91BF91AF919F918F917F916F9125
:102BB0005F914F913F912F910F900FBE0F901F90FB
:102BC00018951F920F920FB60F9211242F933F93D7
:102BD0004F935F936F937F938F939F93AF93BF9325
:102BE000EF93FF93DF93CF93CDB7DEB78091C00112
:102BF0009091C101009729F0E091C001F091C101CD
:102C00000995CF91DF91FF91EF91BF91AF919F9186
:102C10008F917F916F915F914F913F912F910F9085
:102C20000FBE0F901F9018951F920F920FB60F9224
:102C300011242F933F934F935F936F937F938F93C1
:102C40009F93AF93BF93EF93FF93DF93CF93CDB752
:102C5000DEB78091C2019091C301009729F0E09105
:102C6000C201F091C3010995CF91DF91FF91EF91DE
:102C7000BF91AF919F918F917F916F915F914F9194
:102C80003F912F910F900FBE0F901F901895DF93DB
:102C9000CF93CDB7DEB7AFE5B0E0EFE5F0E08081F0
:102CA00080688C93CF91DF910895DF93CF93CDB758
:102CB000DEB7AFE5B0E0EFE5F0E080818F778C9391
:102CC000CF91DF910895DF93CF9300D000D0CDB79F
:102CD000DEB789836A838981282F30E03C832B8388
:102CE0008B819C8181309105D1F02B813C812230F8
:102CF00031052CF48B819C81009761F01EC02B81E3
:102D00003C812230310581F08B819C81833091059B
:102D100081F013C0EAE3F0E08A8180830EC0E7E32C
:102D2000F0E08A81808309C0E4E3F0E08A81808357
:102D300004C0E1E3F0E08A8180830F900F900F9050
:102D40000F90CF91DF910895DF93CF9300D000D003
:102D5000CDB7DEB789836A838981282F30E03C8331
:102D60002B838B819C8181309105D1F02B813C811B
:102D7000223031052CF48B819C81009761F01EC0BC
:102D80002B813C812230310581F08B819C81833005
:102D9000910581F013C0EBE3F0E08A8180830EC0DF
:102DA000E8E3F0E08A81808309C0E5E3F0E08A810E
:102DB000808304C0E2E3F0E08A8180830F900F906B
:102DC0000F900F90CF91DF910895DF93CF9300D0B4
:102DD0000F92CDB7DEB789838981282F30E03B83FE
:102DE0002A838A819B8181309105E9F02A813B8188
:102DF000223031052CF48A819B81009761F02AC032
:102E00002A813B8122303105B1F08A819B81833058
:102E10009105C9F01FC0ABE3B0E0EBE3F0E08081C7
:102E200080958C9317C0A8E3B0E0E8E3F0E08081E0
:102E300080958C930FC0A5E3B0E0E5E3F0E08081DE
:102E400080958C9307C0A2E3B0E0E2E3F0E08081DC
:102E500080958C930F900F900F90CF91DF910895F4
:102E6000DF93CF9300D000D0CDB7DEB78A838A81BD
:102E7000282F30E03C832B838B819C81813091050E
:102E8000D1F02B813C81223031052CF48B819C8147
:102E9000009761F01EC02B813C812230310581F00A
:102EA0008B819C818330910581F013C0EBE3F0E0CE
:102EB000808189830EC0E8E3F0E08081898309C0C6
:102EC000E5E3F0E08081898304C0E2E3F0E0808103
:102ED000898389810F900F900F900F90CF91DF9190
:102EE0000895DF93CF93CDB7DEB729970FB6F89447
:102EF000DEBF0FBECDBF89836A834B838B81282FB2
:102F000030E03987288788859985009739F02885AA
:102F100039852130310509F475C0E2C08981282F37
:102F200030E03F832E838E819F818130910559F15E
:102F30002E813F81223031052CF48E819F810097B4
:102F400069F0CEC02E813F812230310589F18E811A
:102F50009F818330910509F440C0C2C0AAE3B0E06C
:102F6000EAE3F0E08081482F8A81282F30E081E079
:102F700090E0022E02C0880F991F0A94E2F7809514
:102F800084238C93ADC0A7E3B0E0E7E3F0E0808159
:102F9000482F8A81282F30E081E090E0022E02C085
:102FA000880F991F0A94E2F7809584238C9398C028
:102FB000A4E3B0E0E4E3F0E08081482F8A81282F89
:102FC00030E081E090E0022E02C0880F991F0A9441
:102FD000E2F7809584238C9383C0A1E3B0E0E1E322
:102FE000F0E08081482F8A81282F30E081E090E056
:102FF000022E02C0880F991F0A94E2F7809584235D
:103000008C936EC08981282F30E03D832C838C8186
:103010009D818130910549F12C813D81223031051E
:103020002CF48C819D81009761F05AC02C813D81E8
:103030002230310571F18C819D8183309105E9F158
:103040004FC0AAE3B0E0EAE3F0E08081482F8A8134
:10305000282F30E081E090E0022E02C0880F991FF7
:103060000A94E2F7842B8C933BC0A7E3B0E0E7E33C
:10307000F0E08081482F8A81282F30E081E090E0C5
:10308000022E02C0880F991F0A94E2F7842B8C93BA
:1030900027C0A4E3B0E0E4E3F0E08081482F8A8118
:1030A000282F30E081E090E0022E02C0880F991FA7
:1030B0000A94E2F7842B8C9313C0A1E3B0E0E1E320
:1030C000F0E08081482F8A81282F30E081E090E075
:1030D000022E02C0880F991F0A94E2F7842B8C936A
:1030E00029960FB6F894DEBF0FBECDBFCF91DF910A
:1030F0000895DF93CF93CDB7DEB72B970FB6F89433
:10310000DEBF0FBECDBF89836A834B838B81282F9F
:1031100030E03B872A878A859B858130910509F4B9
:103120007FC02A853B852230310509F4E8C08A85B5
:103130009B85009709F051C18981282F30E039879C
:103140002887888599858130910559F128853985A9
:10315000223031052CF488859985009769F03DC1AE
:10316000288539852230310589F188859985833014
:10317000910509F440C031C1ABE3B0E0EBE3F0E00E
:103180008081482F8A81282F30E081E090E0022E54
:1031900002C0880F991F0A94E2F7809584238C93CC
:1031A0001CC1A8E3B0E0E8E3F0E08081482F8A8109
:1031B000282F30E081E090E0022E02C0880F991F96
:1031C0000A94E2F7809584238C9307C1A5E3B0E0CD
:1031D000E5E3F0E08081482F8A81282F30E081E00C
:1031E00090E0022E02C0880F991F0A94E2F78095A2
:1031F00084238C93F2C0A2E3B0E0E2E3F0E08081AC
:10320000482F8A81282F30E081E090E0022E02C012
:10321000880F991F0A94E2F7809584238C93DDC070
:103220008981282F30E03F832E838E819F818130DA
:10323000910549F12E813F81223031052CF48E8198
:103240009F81009761F0C9C02E813F8122303105F6
:1032500071F18E819F8183309105E9F1BEC0ABE3AE
:10326000B0E0EBE3F0E08081482F8A81282F30E046
:1032700081E090E0022E02C0880F991F0A94E2F7C5
:10328000842B8C93AAC0A8E3B0E0E8E3F0E080814F
:10329000482F8A81282F30E081E090E0022E02C082
:1032A000880F991F0A94E2F7842B8C9396C0A5E3AC
:1032B000B0E0E5E3F0E08081482F8A81282F30E0FC
:1032C00081E090E0022E02C0880F991F0A94E2F775
:1032D000842B8C9382C0A2E3B0E0E2E3F0E0808133
:1032E000482F8A81282F30E081E090E0022E02C032
:1032F000880F991F0A94E2F7842B8C936EC0898102
:10330000282F30E03D832C838C819D818130910575
:1033100049F12C813D81223031052CF48C819D8135
:10332000009761F05AC02C813D812230310571F146
:103330008C819D8183309105E9F14FC0ABE3B0E012
:10334000EBE3F0E08081482F8A81282F30E081E094
:1033500090E0022E02C0880F991F0A94E2F784279A
:103360008C933BC0A8E3B0E0E8E3F0E08081482F15
:103370008A81282F30E081E090E0022E02C0880F81
:10338000991F0A94E2F784278C9327C0A5E3B0E045
:10339000E5E3F0E08081482F8A81282F30E081E04A
:1033A00090E0022E02C0880F991F0A94E2F784274A
:1033B0008C9313C0A2E3B0E0E2E3F0E08081482FF9
:1033C0008A81282F30E081E090E0022E02C0880F31
:1033D000991F0A94E2F784278C932B960FB6F894E2
:1033E000DEBF0FBECDBFCF91DF910895DF93CF93A6
:1033F00000D000D00F92CDB7DEB78A836B838A816D
:10340000282F30E03D832C834C815D814130510574
:1034100041F18C819D818230910534F42C813D8174
:103420002115310561F052C04C815D81423051055A
:1034300051F18C819D8183309105B9F147C0E9E359
:10344000F0E08081282F30E08B81882F90E0A90167
:1034500002C0559547958A95E2F7CA018170898324
:1034600035C0E6E3F0E08081282F30E08B81882FA3
:1034700090E0A90102C0559547958A95E2F7CA01E7
:103480008170898323C0E3E3F0E08081282F30E05E
:103490008B81882F90E0A90102C0559547958A95A8
:1034A000E2F7CA018170898311C0E0E3F0E0808116
:1034B000282F30E08B81882F90E0A90102C055951C
:1034C00047958A95E2F7CA018170898389810F90B7
:1034D0000F900F900F900F90CF91DF910895DF9391
:1034E000CF9300D000D0CDB7DEB789836A838981BE
:1034F000282F30E03C832B838B819C818130910588
:1035000049F12B813C81223031052CF48B819C8147
:10351000009761F05AC02B813C812230310571F156
:103520008B819C8183309105E9F14FC0ABE3B0E022
:10353000EBE3F0E08081482F8A81282F30E081E0A2
:1035400090E0022E02C0880F991F0A94E2F7842BA4
:103550008C933BC0A8E3B0E0E8E3F0E08081482F23
:103560008A81282F30E081E090E0022E02C0880F8F
:10357000991F0A94E2F7842B8C9327C0A5E3B0E04F
:10358000E5E3F0E08081482F8A81282F30E081E058
:1035900090E0022E02C0880F991F0A94E2F7842B54
:1035A0008C9313C0A2E3B0E0E2E3F0E08081482F07
:1035B0008A81282F30E081E090E0022E02C0880F3F
:1035C000991F0A94E2F7842B8C930F900F900F9021
:1035D0000F90CF91DF910895DF93CF93CDB7DEB7F2
:1035E00028970FB6F894DEBF0FBECDBF6D837E83E4
:1035F0008F8398878D819E81AF81B88581319105B8
:10360000A105B105E0F482E061E00E9405088D812A
:103610009E81AF81B885880F991FAA1FBB1F880F95
:10362000991FAA1FBB1F880F991FAA1FBB1F880FB6
:10363000991FAA1FBB1F81500E946A0995C08D81E6
:103640009E81AF81B88581389105A105B10520F52E
:1036500082E062E00E9405088D819E81AF81B8857D
:10366000880F991FAA1FBB1F880F991FAA1FBB1F76
:10367000880F991FAA1FBB1F880F991FAA1FBB1F66
:10368000689412F8B695A795979587951694D1F7F3
:1036900081500E946A0968C08D819E81AF81B88582
:1036A000813024E0920720E0A20720E0B20720F555
:1036B00082E063E00E9405088D819E81AF81B8851C
:1036C000880F991FAA1FBB1F880F991FAA1FBB1F16
:1036D000880F991FAA1FBB1F880F991FAA1FBB1F06
:1036E000689415F8B695A795979587951694D1F790
:1036F00081500E946A0938C08D819E81AF81B88552
:1037000028EE33E040E050E0BC01CD010E94763A63
:10371000DA01C90189839A83AB83BC8369817A8189
:103720008B819C810E949705DC01CB01BC01CD01FE
:103730000E94BF1B8D819E81AF81B88528EE33E04A
:1037400040E050E0BC01CD010E94763ADC01CB01A3
:103750008D839E83AF83B8878D819E81AF81B8852D
:10376000BC01CD010E94EC1A0E94530A28960FB6A4
:10377000F894DEBF0FBECDBFCF91DF910895DF93E8
:10378000CF9300D000D0CDB7DEB769837A838B8327
:103790009C8369817A818B819C810E944305DC0135
:1037A000CB01AA2797FDA095BA2FBC01CD010E949D
:1037B000E5049B01AC0169817A818B819C810E9427
:1037C000C101DC01CB01BC01CD0120E030E040E0D3
:1037D00050E00E94250418160CF0FCC069817A8123
:1037E0008B819C810E944305DC01CB01AA2797FDB8
:1037F000A095BA2FBC01CD010E94E5049B01AC014C
:1038000069817A818B819C810E94C101DC01CB019D
:10381000BC01CD0120E030E04AE754E40E941F02E1
:10382000DC01CB01BC01CD010E944900DC01CB01D0
:10383000BC01CD010E94EC1A69817A818B819C8147
:103840000E944305DC01CB01AA2797FDA095BA2F62
:10385000BC01CD010E94E504DC01CB0189839A8380
:10386000AB83BC83B7C069817A818B819C8120E066
:1038700030E040E85FE30E94C503882381F489EFCC
:103880000E946A0982E063E00E94050880E090E0FF
:10389000A0E0B0E089839A83AB83BC8399C069813F
:1038A0007A818B819C8120E030E040E850E40E94E6
:1038B000B5041816ACF169817A818B819C8120E076
:1038C00030E04AE756E40E941F02DC01CB01BC0154
:1038D000CD0120E030E040E853E40E941903DC0110
:1038E000CB01BC01CD0120E030E040E85FE30E9465
:1038F000C101DC01CB01BC01CD010E944900DC010A
:10390000CB010E946A0982E064E00E94050880E021
:1039100090E0A0E0B0E089839A83AB83BC8358C079
:1039200069817A818B819C8120E030E040E851E41C
:103930000E94B5041816ACF169817A818B819C8153
:1039400020E030E04AE756E40E941F02DC01CB0190
:10395000BC01CD0120E030E040E854E40E941903AE
:10396000DC01CB01BC01CD0120E030E040E85FE3A9
:103970000E94C101DC01CB01BC01CD010E944900C4
:10398000DC01CB010E946A0982E065E00E94050823
:1039900080E090E0A0E0B0E089839A83AB83BC83B1
:1039A00017C089EF0E946A0982E065E00E9405085D
:1039B00069817A818B819C8120E030E040E851E48C
:1039C0000E94C101DC01CB0189839A83AB83BC8354
:1039D0000E94530A69817A818B819C8120E030E0CA
:1039E00040E050E00E94250418160CF43CCF0F90E4
:1039F0000F900F900F90CF91DF910895DF93CF93A9
:103A000000D000D0CDB7DEB769837A838B839C83E7
:103A100069817A818B819C8120E030E04AE754E41F
:103A20000E941F02DC01CB01BC01CD010E94BF1B23
:103A30000F900F900F900F90CF91DF910895DF932B
:103A4000CF9300D000D0CDB7DEB769837A838B8364
:103A50009C830FC189819A81AB81BC81813020E137
:103A6000920720E0A20720E0B20700F589819A8141
:103A7000AB81BC81880F991FAA1FBB1F880F991F9C
:103A8000AA1FBB1F880F991FAA1FBB1F880F991F52
:103A9000AA1FBB1F01970E94140E84E061E00E94E0
:103AA000E90A19821A821B821C82E1C089819A81EB
:103AB000AB81BC81813020E8920720E0A20720E0A2
:103AC000B20740F589819A81AB81BC81880F991F2B
:103AD000AA1FBB1F880F991FAA1FBB1F880F991F02
:103AE000AA1FBB1F880F991FAA1FBB1F689412F83B
:103AF000B695A795979587951694D1F701970E944B
:103B0000140E84E062E00E94E90A19821A821B8284
:103B10001C82ADC089819A81AB81BC81813020E05B
:103B2000920724E0A20720E0B20740F589819A813C
:103B3000AB81BC81880F991FAA1FBB1F880F991FDB
:103B4000AA1FBB1F880F991FAA1FBB1F880F991F91
:103B5000AA1FBB1F689415F8B695A79597958795EA
:103B60001694D1F701970E94140E84E063E00E943E
:103B7000E90A19821A821B821C8279C089819A8182
:103B8000AB81BC81813020E0920720E1A20720E0D8
:103B9000B20720F589819A81AB81BC81880F991F7A
:103BA000AA1FBB1F880F991FAA1FBB1F880F991F31
:103BB000AA1FBB1F880F991FAA1FBB1F892F9A2FEF
:103BC000AB2FBB2701970E94140E84E064E00E9493
:103BD000E90A19821A821B821C8249C089819A8152
:103BE000AB81BC81813020E0920720E4A20720E075
:103BF000B20748F589819A81AB81BC81880F991FF2
:103C0000AA1FBB1F880F991FAA1FBB1F880F991FD0
:103C1000AA1FBB1F880F991FAA1FBB1F072E7AE080
:103C2000B695A795979587957A95D1F7702D0197B9
:103C30000E94140E84E065E00E94E90A19821A824B
:103C40001B821C8214C08FEF9FEF0E94140E84E031
:103C500065E00E94E90A89819A81AB81BC8180502C
:103C60009040A044B04089839A83AB83BC830E9478
:103C7000FE0F89819A81AB81BC810097A105B105B6
:103C800009F0E8CE0F900F900F900F90CF91DF9139
:103C90000895DF93CF9300D000D0CDB7DEB769830E
:103CA0007A838B839C8369817A818B819C8120E0DC
:103CB00030E04AE754E40E941F02DC01CB01BC0162
:103CC000CD010E944900DC01CB01BC01CD010E9465
:103CD0001F1D0F900F900F900F90CF91DF910895BF
:103CE000DF93CF9300D000D0CDB7DEB769837A835E
:103CF0008B839C8369817A818B819C8120E034E273
:103D000044E759E40E941F02DC01CB01BC01CD0154
:103D10000E944900DC01CB01BC01CD010E941F1DA6
:103D20000F900F900F900F90CF91DF910895DF9338
:103D3000CF93CDB7DEB728970FB6F894DEBF0FBE8E
:103D4000CDBF6D837E838F8398878D819E81AF8168
:103D5000B88581319105A105B105E0F482E061E00B
:103D60000E9427118D819E81AF81B885880F991F90
:103D7000AA1FBB1F880F991FAA1FBB1F880F991F5F
:103D8000AA1FBB1F880F991FAA1FBB1F81500E942B
:103D90008C12C5C08D819E81AF81B8858138910517
:103DA000A105B10520F582E062E00E9427118D8116
:103DB0009E81AF81B885880F991FAA1FBB1F880FEE
:103DC000991FAA1FBB1F880F991FAA1FBB1F880F0F
:103DD000991FAA1FBB1F689412F8B695A7959795CF
:103DE00087951694D1F781500E948C1298C08D81CE
:103DF0009E81AF81B885813022E0920720E0A20742
:103E000020E0B20720F582E063E00E9427118D8157
:103E10009E81AF81B885880F991FAA1FBB1F880F8D
:103E2000991FAA1FBB1F880F991FAA1FBB1F880FAE
:103E3000991FAA1FBB1F689414F8B695A79597956C
:103E400087951694D1F781500E948C1268C08D819D
:103E50009E81AF81B885813024E0920720E0A207DF
:103E600020E0B20720F582E064E00E9427118D81F6
:103E70009E81AF81B885880F991FAA1FBB1F880F2D
:103E8000991FAA1FBB1F880F991FAA1FBB1F880F4E
:103E9000991FAA1FBB1F689415F8B695A79597950B
:103EA00087951694D1F781500E948C1238C08D816D
:103EB0009E81AF81B88528EE33E040E050E0BC0140
:103EC000CD010E94763ADA01C90189839A83AB83D6
:103ED000BC8369817A818B819C810E949705DC017A
:103EE000CB01BC01CD010E949A1F8D819E81AF81C3
:103EF000B88528EE33E040E050E0BC01CD010E94DF
:103F0000763ADC01CB018D839E83AF83B8878D81A8
:103F10009E81AF81B885BC01CD010E94971E0E9491
:103F2000791328960FB6F894DEBF0FBECDBFCF91A0
:103F3000DF910895DF93CF9300D000D0CDB7DEB7E7
:103F400069837A838B839C8369817A818B819C814D
:103F50000E944305DC01CB01AA2797FDA095BA2F4B
:103F6000BC01CD010E94E5049B01AC0169817A810D
:103F70008B819C810E94C101DC01CB01BC01CD0180
:103F800020E030E040E050E00E94250418160CF0DC
:103F90003CC169817A818B819C810E944305DC014F
:103FA000CB01AA2797FDA095BA2FBC01CD010E9495
:103FB000E5049B01AC0169817A818B819C810E941F
:103FC000C101DC01CB01BC01CD0120E030E04AE7BA
:103FD00054E40E941F02DC01CB01BC01CD010E9410
:103FE0004900DC01CB01BC01CD010E94971E698113
:103FF0007A818B819C810E944305DC01CB01AA2739
:1040000097FDA095BA2FBC01CD010E94E504DC010B
:10401000CB0189839A83AB83BC83F7C069817A81A2
:104020008B819C8120E030E040E85FE30E94C50383
:10403000882379F489EF0E948C1282E064E00E9468
:10404000271180E090E0A0E0B0E089839A83AB8301
:10405000BC8369817A818B819C8120E030E040E0E3
:1040600050E40E94B5041816ACF169817A818B8105
:104070009C8120E030E04AE756E40E941F02DC0108
:10408000CB01BC01CD0120E030E040E053E40E94D0
:104090001903DC01CB01BC01CD0120E030E040E898
:1040A0005FE30E94C101DC01CB01BC01CD010E9494
:1040B0004900DC01CB010E948C1282E065E00E9485
:1040C000271180E090E0A0E0B0E089839A83AB8381
:1040D000BC8399C069817A818B819C8120E030E02A
:1040E00040E850E40E94B5041816ACF169817A8169
:1040F0008B819C8120E030E04AE756E40E941F0259
:10410000DC01CB01BC01CD0120E030E040E853E40C
:104110000E941903DC01CB01BC01CD0120E030E09D
:1041200040E85FE30E94C101DC01CB01BC01CD018D
:104130000E944900DC01CB010E948C1282E066E003
:104140000E94271180E090E0A0E0B0E089839A838C
:10415000AB83BC8358C069817A818B819C8120E0CC
:1041600030E040E851E40E94B5041816ACF16981D2
:104170007A818B819C8120E030E04AE756E40E94FE
:104180001F02DC01CB01BC01CD0120E030E040E8A2
:1041900054E40E941903DC01CB01BC01CD0120E0F5
:1041A00030E040E85FE30E94C101DC01CB01BC01CB
:1041B000CD010E944900DC01CB010E948C1282E0FB
:1041C00067E00E94271180E090E0A0E0B0E08983E2
:1041D0009A83AB83BC8317C089EF0E948C1282E064
:1041E00067E00E94271169817A818B819C8120E0A0
:1041F00030E040E851E40E94C101DC01CB01898339
:104200009A83AB83BC830E94791369817A818B8105
:104210009C8120E030E040E050E00E942504181628
:104220000CF4FCCE0F900F900F900F90CF91DF9178
:104230000895DF93CF9300D000D0CDB7DEB7698368
:104240007A838B839C8369817A818B819C8120E036
:1042500030E04AE754E40E941F02DC01CB01BC01BC
:10426000CD010E949A1F0F900F900F900F90CF9149
:10427000DF910895DF93CF93CDB7DEB783E061E0A0
:1042800041E00E94711783E063E040E00E947117F3
:1042900083E063E00E946F1A0E94431481E00E9451
:1042A000E21487EB92E20E94861581E193E20E947C
:1042B0001C0ACF91DF910895DF93CF93CDB7DEB77E
:1042C000A6970FB6F894DEBF0FBECDBF8091C50193
:1042D000882309F043C10E94E40983E061E041E0E2
:1042E0000E94791880E090E0A0E7B1E48BA39CA342
:1042F000ADA3BEA36BA17CA18DA19EA12BEA3AEA3E
:104300004AEA50E40E941F02DC01CB018F8F98A380
:10431000A9A3BAA36F8D78A189A19AA120E030E06A
:1043200040E85FE30E94850488231CF481E08E8FBF
:1043300091C06F8D78A189A19AA120E030E04FE76C
:1043400053E40E94250418160CF07BC06BA17CA1DD
:104350008DA19EA120E030E04AE754E40E941903B9
:10436000DC01CB018A8F9B8FAC8FBD8F6A8D7B8DDB
:104370008C8D9D8D20E030E04AE755E40E941F02BD
:10438000DC01CB018E8B9F8BA88FB98F6E897F89C3
:10439000888D998D20E030E040E85FE30E9485043D
:1043A00088232CF481E090E09D8B8C8B3FC06E893C
:1043B0007F89888D998D20E03FEF4FE757E40E9479
:1043C000250418164CF56A8D7B8D8C8D9D8D20E013
:1043D00030E040E251E40E941F02DC01CB01BC014D
:1043E000CD010E944900DC01CB019D8B8C8B0FC05D
:1043F00080E991E09B8B8A8B8A899B890197F1F7F1
:104400009B8B8A8B8C899D8901979D8B8C8B8C894A
:104410009D89009769F724C06E897F89888D998D61
:104420000E944900DC01CB019D8B8C8B8C899D897E
:10443000998B888B888999890197F1F7998B888B5B
:104440000FC06F8D78A189A19AA10E944900DC015B
:10445000CB018E8F8E8D8F878F858A95F1F78F8711
:1044600083E061E040E00E94791881E08093C5011B
:1044700080E063E00E94050880E090E0A0EFB1E4F6
:104480008B879C87AD87BE876B857C858D859E8558
:1044900020E030E04AE755E40E941F02DC01CB0136
:1044A0008F839887A987BA876F81788589859A8550
:1044B00020E030E040E85FE30E94850488232CF48C
:1044C00081E090E09E838D833FC06F8178858985F0
:1044D0009A8520E03FEF4FE757E40E942504181625
:1044E0004CF56B857C858D859E8520E030E040E233
:1044F00051E40E941F02DC01CB01BC01CD010E94EE
:104500004900DC01CB019E838D830FC080E991E0DF
:104510009C838B838B819C810197F1F79C838B8398
:104520008D819E8101979E838D838D819E810097D1
:1045300069F714C06F81788589859A850E94490042
:10454000DC01CB019E838D838D819E819A8389833B
:1045500089819A810197F1F79A838983A6960FB68C
:10456000F894DEBF0FBECDBFCF91DF910895DF93EA
:10457000CF93CDB7DEB78091C501813009F04EC031
:104580008091A801882309F040C00E94F20980911F
:10459000C6019091C701382F2227E2E5F0E0808123
:1045A000882F90E0820F931FCC01A0E0B0E0BC0107
:1045B000CD010E949705DC01CB01BC01CD0128E2B1
:1045C0003EE74CE05EE30E941F02DC01CB01BC0130
:1045D000CD0120E030E040E050E40E941903DC010E
:1045E000CB018093CA019093CB01A093CC01B093EF
:1045F000CD010E94670A1092C7011092C60181E0A6
:104600008093A8011092C50109C0E2E5F0E0108294
:104610001092C7011092C6011092A801CF91DF91AC
:104620000895DF93CF93CDB7DEB78091C601909107
:10463000C70101969093C7018093C6012091C601DE
:104640003091C7018091A9019091AA018217930727
:10465000C0F480E090E0A8ECB3E48093CA019093AA
:10466000CB01A093CC01B093CD01E2E5F0E0108244
:104670001092C50181E08093A8011092C7011092A9
:10468000C601CF91DF910895DF93CF93CDB7DEB709
:104690008091CA019091CB01A091CC01B091CD0144
:1046A000BC01CD010E944900DC01CB01CF91DF911B
:1046B0000895DF93CF93CDB7DEB783E067E041E0A5
:1046C0000E94711781EE94E00E94420E0E9484269F
:1046D0000E944D0F0E94850F80E996E20E94B30F61
:1046E00084E896E20E94D70F8DE064E00E94E90A18
:1046F000CF91DF910895DF93CF93CDB7DEB76C975D
:104700000FB6F894DEBF0FBECDBF0E9459238DE5D2
:1047100090E00E94140E80E090E8A4EDB4E4898F4C
:104720009A8FAB8FBC8F698D7A8D8B8D9C8D20E09D
:1047300030E04AE755E40E941F02DC01CB018D8B7B
:104740009E8BAF8BB88F6D897E898F89988D20E085
:1047500030E040E85FE30E94850488232CF481E088
:1047600090E09C8B8B8B3FC06D897E898F89988D63
:1047700020E03FEF4FE757E40E94250418164CF560
:10478000698D7A8D8B8D9C8D20E030E040E251E484
:104790000E941F02DC01CB01BC01CD010E94490037
:1047A000DC01CB019C8B8B8B0FC080E991E09A8B55
:1047B000898B89899A890197F1F79A8B898B8B89E3
:1047C0009C8901979C8B8B8B8B899C89009769F7BF
:1047D00014C06D897E898F89988D0E944900DC0103
:1047E000CB019C8B8B8B8B899C89988B8F878F853A
:1047F00098890197F1F7988B8F870E943F100E944C
:104800005B0F0E94930F80E090E0AAEFB3E48B87E8
:104810009C87AD87BE876B857C858D859E8520E0D6
:1048200030E04AE755E40E941F02DC01CB018F8390
:104830009887A987BA876F81788589859A8520E0CE
:1048400030E040E85FE30E94850488232CF481E097
:1048500090E09E838D833FC06F81788589859A859E
:1048600020E03FEF4FE757E40E94250418164CF56F
:104870006B857C858D859E8520E030E040E251E4AB
:104880000E941F02DC01CB01BC01CD010E94490046
:10489000DC01CB019E838D830FC080E991E09C8376
:1048A0008B838B819C810197F1F79C838B838D8116
:1048B0009E8101979E838D838D819E81009769F7EC
:1048C00014C06F81788589859A850E944900DC0132
:1048D000CB019E838D838D819E819A83898389817B
:1048E0009A810197F1F79A8389836C960FB6F894B1
:1048F000DEBF0FBECDBFCF91DF910895DF93CF9381
:10490000CDB7DEB76C970FB6F894DEBF0FBECDBF44
:104910000E94592386E990E00E94140E80E090E8FE
:10492000A4EDB4E4898F9A8FAB8FBC8F698D7A8D9B
:104930008B8D9C8D20E030E04AE755E40E941F02F9
:10494000DC01CB018D8B9E8BAF8BB88F6D897E89FF
:104950008F89988D20E030E040E85FE30E94850475
:1049600088232CF481E090E09C8B8B8B3FC06D8979
:104970007E898F89988D20E03FEF4FE757E40E94B2
:10498000250418164CF5698D7A8D8B8D9C8D20E051
:1049900030E040E251E40E941F02DC01CB01BC0187
:1049A000CD010E944900DC01CB019C8B8B8B0FC099
:1049B00080E991E09A8B898B89899A890197F1F72F
:1049C0009A8B898B8B899C8901979C8B8B8B8B898C
:1049D0009C89009769F714C06D897E898F89988DAD
:1049E0000E944900DC01CB019C8B8B8B8B899C89BD
:1049F000988B8F878F8598890197F1F7988B8F8790
:104A00000E943F100E945B0F0E94930F80E090E095
:104A1000AAEFB3E48B879C87AD87BE876B857C85C7
:104A20008D859E8520E030E04AE755E40E941F0214
:104A3000DC01CB018F839887A987BA876F8178853E
:104A400089859A8520E030E040E85FE30E94850494
:104A500088232CF481E090E09E838D833FC06F819A
:104A6000788589859A8520E03FEF4FE757E40E94DB
:104A7000250418164CF56B857C858D859E8520E078
:104A800030E040E251E40E941F02DC01CB01BC0196
:104A9000CD010E944900DC01CB019E838D830FC0B4
:104AA00080E991E09C838B838B819C810197F1F756
:104AB0009C838B838D819E8101979E838D838D81C5
:104AC0009E81009769F714C06F81788589859A85E2
:104AD0000E944900DC01CB019E838D838D819E81E4
:104AE0009A83898389819A810197F1F79A838983CF
:104AF0006C960FB6F894DEBF0FBECDBFCF91DF919D
:104B00000895DF93CF93CDB7DEB76C970FB6F894C7
:104B1000DEBF0FBECDBF0E9459238EE190E00E9400
:104B2000140E80E090E8A4EDB4E4898F9A8FAB8FE7
:104B3000BC8F698D7A8D8B8D9C8D20E030E04AE7AB
:104B400055E40E941F02DC01CB018D8B9E8BAF8B45
:104B5000B88F6D897E898F89988D20E030E040E89C
:104B60005FE30E94850488232CF481E090E09C8B15
:104B70008B8B3FC06D897E898F89988D20E03FEFB8
:104B80004FE757E40E94250418164CF5698D7A8D7D
:104B90008B8D9C8D20E030E040E251E40E941F02AA
:104BA000DC01CB01BC01CD010E944900DC01CB013D
:104BB0009C8B8B8B0FC080E991E09A8B898B8989C4
:104BC0009A890197F1F79A8B898B8B899C89019738
:104BD0009C8B8B8B8B899C89009769F714C06D899E
:104BE0007E898F89988D0E944900DC01CB019C8BC6
:104BF0008B8B8B899C89988B8F878F859889019760
:104C0000F1F7988B8F870E943F100E945B0F0E94E4
:104C1000930F80E090E0AAEFB3E48B879C87AD8789
:104C2000BE876B857C858D859E8520E030E04AE7D8
:104C300055E40E941F02DC01CB018F839887A9876E
:104C4000BA876F81788589859A8520E030E040E8D1
:104C50005FE30E94850488232CF481E090E09E832A
:104C60008D833FC06F81788589859A8520E03FEFED
:104C70004FE757E40E94250418164CF56B857C8598
:104C80008D859E8520E030E040E251E40E941F02C5
:104C9000DC01CB01BC01CD010E944900DC01CB014C
:104CA0009E838D830FC080E991E09C838B838B81F1
:104CB0009C810197F1F79C838B838D819E81019765
:104CC0009E838D838D819E81009769F714C06F81CB
:104CD000788589859A850E944900DC01CB019E83F5
:104CE0008D838D819E819A83898389819A810197A1
:104CF000F1F79A8389836C960FB6F894DEBF0FBEE6
:104D0000CDBFCF91DF910895DF93CF93CDB7DEB7BD
:104D100083E067E041E00E947918CF91DF91089528
:104D2000DF93CF93CDB7DEB783E067E040E00E942A
:104D30007918CF91DF910895DF93CF93CDB7DEB788
:104D400061970FB6F894DEBF0FBECDBF8F878F85FA
:104D50008093CE0181E063E041E00E94711781E021
:104D600061E041E00E94711781E062E041E00E9451
:104D700071178F85282F30E0398B288B8889998986
:104D8000009731F02889398921303105B1F019C0F7
:104D900080E064E041E00E94711780E065E041E05E
:104DA0000E94711780E066E041E00E94711780E088
:104DB00067E041E00E94711704C080E06FEF0E943D
:104DC000631680E090E0A8E4B2E48B879C87AD870F
:104DD000BE876B857C858D859E8520E030E04AE727
:104DE00055E40E941F02DC01CB018F839887A987BD
:104DF000BA876F81788589859A8520E030E040E820
:104E00005FE30E94850488232CF481E090E09E8378
:104E10008D833FC06F81788589859A8520E03FEF3B
:104E20004FE757E40E94250418164CF56B857C85E6
:104E30008D859E8520E030E040E251E40E941F0213
:104E4000DC01CB01BC01CD010E944900DC01CB019A
:104E50009E838D830FC080E991E09C838B838B813F
:104E60009C810197F1F79C838B838D819E810197B3
:104E70009E838D838D819E81009769F714C06F8119
:104E8000788589859A850E944900DC01CB019E8343
:104E90008D838D819E819A83898389819A810197EF
:104EA000F1F79A8389830E945E2B81E060E00E9483
:104EB000322C81E060E040E00E94132D8F8561E09C
:104EC00040E00E94EC2E0E94542B61960FB6F8949D
:104ED000DEBF0FBECDBFCF91DF910895DF93CF939B
:104EE000CDB7DEB7A9970FB6F894DEBF0FBECDBF22
:104EF0008FA381E061E040E00E94791881E062E0E8
:104F000040E00E9479188091CE01282F30E039A727
:104F100028A788A599A5009739F028A539A521309B
:104F2000310509F4CDC0D4C08FA1982F991F9927BE
:104F3000991F80E067E0492F0E9479188FA1829520
:104F4000869586958370982F917080E066E0492F52
:104F50000E9479188FA1829586958770982F9170FD
:104F600080E065E0492F0E9479188FA182958F70AB
:104F7000982F917080E064E0492F0E9479180E9478
:104F800097310E94213280E090E0A8ECB2E48BA33C
:104F90009CA3ADA3BEA36BA17CA18DA19EA120E08B
:104FA00030E04AE755E40E941F02DC01CB018F8FFD
:104FB00098A3A9A3BAA36F8D78A189A19AA120E093
:104FC00030E040E85FE30E94850488232CF481E010
:104FD00090E09E8F8D8F3FC06F8D78A189A19AA19F
:104FE00020E03FEF4FE757E40E94250418164CF5E8
:104FF0006BA17CA18DA19EA120E030E040E251E4B4
:105000000E941F02DC01CB01BC01CD010E944900BE
:10501000DC01CB019E8F8D8F0FC080E991E09C8FCA
:105020008B8F8B8D9C8D0197F1F79C8F8B8F8D8D46
:105030009E8D01979E8F8D8F8D8D9E8D009769F728
:1050400014C06F8D78A189A19AA10E944900DC014A
:10505000CB019E8F8D8F8D8D9E8D9A8F898F898D9F
:105060009A8D0197F1F79A8F898F8FA186958695F2
:105070008695982F917080E067E0492F0E947918FB
:105080008FA186958695982F917080E066E0492FD4
:105090000E9479188FA18695982F917080E065E025
:1050A000492F0E9479188FA1982F917080E064E0B9
:1050B000492F0E9479180E9497310E94213208C01E
:1050C0000E94973180E06FA10E94A4160E942132B5
:1050D00080E090E0A8E4B2E48D8B9E8BAF8BB88F1C
:1050E0006D897E898F89988D2BEA3AEA4AEA50E4E5
:1050F0000E941F02DC01CB01898B9A8BAB8BBC8B8E
:1051000069897A898B899C8920E030E040E85FE3F7
:105110000E94850488231CF481E0888B91C06989F2
:105120007A898B899C8920E030E04FE753E40E9424
:10513000250418160CF07BC06D897E898F89988DA7
:1051400020E030E04AE754E40E941903DC01CB017F
:105150008C879D87AE87BF876C857D858E859F8573
:1051600020E030E04AE755E40E941F02DC01CB0159
:1051700088879987AA87BB87688579858A859B8573
:1051800020E030E040E85FE30E94850488232CF4AF
:1051900081E090E09F838E833FC0688579858A8512
:1051A0009B8520E03FEF4FE757E40E942504181647
:1051B0004CF56C857D858E859F8520E030E040E252
:1051C00051E40E941F02DC01CB01BC01CD010E9411
:1051D0004900DC01CB019F838E830FC080E991E001
:1051E0009D838C838C819D810197F1F79D838C83B6
:1051F0008E819F8101979F838E838E819F810097EF
:1052000069F724C0688579858A859B850E94490055
:10521000DC01CB019F838E838E819F819B838A8358
:105220008A819B810197F1F79B838A830FC06989EB
:105230007A898B899C890E944900DC01CB01888B8B
:105240008889898389818A95F1F78983A9960FB620
:10525000F894DEBF0FBECDBFCF91DF910895DF93ED
:10526000CF9300D00F92CDB7DEB7898381E061E0A4
:1052700041E00E94791881E062E040E00E947918E4
:105280008091CE01282F30E03B832A838A819B8145
:10529000009739F02A813B812130310509F45BC048
:1052A00062C08981982F991F9927991F80E067E034
:1052B000492F0E94791889818295869586958370F9
:1052C000982F917080E066E0492F0E9479188981BB
:1052D000829586958770982F917080E065E0492FC0
:1052E0000E947918898182958F70982F917080E043
:1052F00064E0492F0E9479180E9497310E94213260
:105300008981869586958695982F917080E067E0D3
:10531000492F0E947918898186958695982F9170DA
:1053200080E066E0492F0E94791889818695982F40
:10533000917080E065E0492F0E9479188981982F4B
:10534000917080E064E0492F0E9479180E949731A3
:105350000E94213208C00E94973180E069810E943A
:10536000A4160E9421320F900F900F90CF91DF91E1
:105370000895DF93CF9300D00F92CDB7DEB79B8314
:105380008A8319820EC08981282F30E08A819B810F
:10539000FC01E20FF31F80810E942F2989818F5F1A
:1053A00089838981282F30E08A819B81FC01E20F6B
:1053B000F31F8081882339F70F900F900F90CF91C2
:1053C000DF9108950F931F93DF93CF93CDB7DEB78F
:1053D000A2970FB6F894DEBF0FBECDBF6E8F7F8F42
:1053E00088A399A36E8D7F8D88A199A10E94490001
:1053F000DC01CB018C879D87AE87BF871B866C85C0
:105400007D858E859F850E949705DC01CB01BC01BF
:10541000CD012E8D3F8D48A159A10E94C50388233F
:1054200009F062C08C859D85AE85BF858F83988786
:10543000A987BA878F819885A985BA850097A10524
:10544000B10591F580E30E942F292EC08B85082F8E
:1054500010E08F819885A985BA852AE030E040E088
:1054600050E0BC01CD010E94763ADC01CB01282F2F
:10547000205DCE014096FC01E00FF11F20838F815B
:105480009885A985BA852AE030E040E050E0BC016B
:10549000CD010E94763ADA01C9018F839887A987E6
:1054A000BA878B858F5F8B878F819885A985BA8511
:1054B0000097A105B10551F68B858E8311C08E81B1
:1054C000882F90E09C0121503040CE014096FC0195
:1054D000E20FF31F80810E942F298E8181508E83DD
:1054E0008E81882361F7AFC06C857D858E859F8511
:1054F0000E949705DC01CB01BC01CD010E94E2298D
:105500006C857D858E859F850E9497059B01AC01EA
:105510006E8D7F8D88A199A10E94C101DC01CB0114
:10552000BC01CD012CEA35EC47E257E30E94F201C1
:10553000DC01CB018A839B83AC83BD831B866A819C
:105540007B818C819D8120E030E040E251E40E942B
:105550001F02DC01CB018A839B83AC83BD836A81FC
:105560007B818C819D810E944900DC01CB01882FC9
:1055700090E0A0E0B0E08C879D87AE87BF878B85E9
:10558000282F30E08C85482F405DCE014A96FC01E3
:10559000E20FF31F40836C857D858E859F850E9479
:1055A00097059B01AC016A817B818C819D810E9462
:1055B000C101DC01CB018A839B83AC83BD838B85D6
:1055C0008F5F8B871AA26A817B818C819D8120E00D
:1055D00030E040E050E00E94F503882311F081E0C4
:1055E0008AA381E09AA18927882321F48B858430BE
:1055F00008F4A5CF8EE20E942F2903C08B8581502D
:105600008B878B85882F90E09C0121503040CE0104
:105610004A96FC01E20FF31F8081803379F31982EF
:105620000EC08981282F30E0CE014A96FC01E20F9E
:10563000F31F80810E942F2989818F5F898399813F
:105640008B85981770F3A2960FB6F894DEBF0FBE45
:10565000CDBFCF91DF911F910F910895DF93CF932D
:1056600000D000D0CDB7DEB789836A838981282F27
:1056700030E03C832B838B819C81009731F02B8120
:105680003C812130310529F008C08A810E94BE305A
:1056900004C08A81805C0E94BE300F900F900F90F2
:1056A0000F90CF91DF910895DF93CF93CDB7DEB701
:1056B00081E00E946E27CF91DF910895DF93CF9311
:1056C000CDB7DEB768970FB6F894DEBF0FBECDBF7B
:1056D00082E00E946E2780E090E0A0E0B0E08D8B39
:1056E0009E8BAF8BB88F6D897E898F89988D2BEAC1
:1056F0003AEA4AEA50E40E941F02DC01CB01898B9E
:105700009A8BAB8BBC8B69897A898B899C8920E0C9
:1057100030E040E85FE30E94850488231CF481E0C8
:10572000888B91C069897A898B899C8920E030E0D7
:105730004FE753E40E94250418160CF07BC06D89D6
:105740007E898F89988D20E030E04AE754E40E94FA
:105750001903DC01CB018C879D87AE87BF876C85E1
:105760007D858E859F8520E030E04AE755E40E94E4
:105770001F02DC01CB0188879987AA87BB876885D0
:1057800079858A859B8520E030E040E85FE30E94D0
:10579000850488232CF481E090E09F838E833FC0B2
:1057A000688579858A859B8520E03FEF4FE757E440
:1057B0000E94250418164CF56C857D858E859F8585
:1057C00020E030E040E251E40E941F02DC01CB0106
:1057D000BC01CD010E944900DC01CB019F838E8377
:1057E0000FC080E991E09D838C838C819D8101971E
:1057F000F1F79D838C838E819F8101979F838E8398
:105800008E819F81009769F724C0688579858A8594
:105810009B850E944900DC01CB019F838E838E8192
:105820009F819B838A838A819B810197F1F79B8368
:105830008A830FC069897A898B899C890E94490073
:10584000DC01CB01888B8889898389818A95F1F76E
:10585000898368960FB6F894DEBF0FBECDBFCF9197
:10586000DF910895DF93CF93CDB7DEB76A970FB678
:10587000F894DEBF0FBECDBF898F6A8F898D882FC8
:1058800090E081709070880F991F982F94608A8D96
:105890008170892B0E946E2780E090E0A0E8BFE332
:1058A0008D8B9E8BAF8BB88F6D897E898F89988DFC
:1058B0002BEA3AEA4AEA50E40E941F02DC01CB01DB
:1058C000898B9A8BAB8BBC8B69897A898B899C89F4
:1058D00020E030E040E85FE30E94850488231CF468
:1058E00081E0888B91C069897A898B899C8920E0C5
:1058F00030E04FE753E40E94250418160CF07BC0FB
:105900006D897E898F89988D20E030E04AE754E4E4
:105910000E941903DC01CB018C879D87AE87BF876E
:105920006C857D858E859F8520E030E04AE755E4D3
:105930000E941F02DC01CB0188879987AA87BB8759
:10594000688579858A859B8520E030E040E85FE3C3
:105950000E94850488232CF481E090E09F838E834D
:105960003FC0688579858A859B8520E03FEF4FE7BA
:1059700057E40E94250418164CF56C857D858E85AC
:105980009F8520E030E040E251E40E941F02DC01EC
:10599000CB01BC01CD010E944900DC01CB019F83FA
:1059A0008E830FC080E991E09D838C838C819D81E3
:1059B0000197F1F79D838C838E819F8101979F834F
:1059C0008E838E819F81009769F724C068857985D1
:1059D0008A859B850E944900DC01CB019F838E83D1
:1059E0008E819F819B838A838A819B810197F1F7B6
:1059F0009B838A830FC069897A898B899C890E94DD
:105A00004900DC01CB01888B8889898389818A954B
:105A1000F1F789836A960FB6F894DEBF0FBECDBF4B
:105A2000CF91DF910895DF93CF93CDB7DEB76B971A
:105A30000FB6F894DEBF0FBECDBF898F6A8F4B8F34
:105A4000898D882F90E081709070880F991F880F42
:105A5000991F282F28608A8D882F90E08170907080
:105A6000880F991F922F982B8B8D8170892B0E9404
:105A70006E2780E090E0A0E8BFE38D8B9E8BAF8B1C
:105A8000B88F6D897E898F89988D2BEA3AEA4AEA28
:105A900050E40E941F02DC01CB01898B9A8BAB8BF7
:105AA000BC8B69897A898B899C8920E030E040E849
:105AB0005FE30E94850488231CF481E0888B91C0F9
:105AC00069897A898B899C8920E030E04FE753E42B
:105AD0000E94250418160CF07BC06D897E898F8981
